:1005C8000D09303132333435363738393A2D000891
:1005D8005A576169742E2E2E00016C000108000123
:0205E8001900F8
:08057D008F80C2A77F057E00FC
:10058500D3EF9400EE940040147D6E7C00ED1D7059
:0D059500011CED4C70F7EF1F70E61E80E3B7
:0105A2002236
:10060D001201FD7F0A7E00CFCDCFCECCCE1201FDE3
:06061D0074092FF8E6FF4E
:0A062300C2A7D2A612057DD2A722BD
:0A000E00C2A7C2A612057DD2A722E8
:10054E007F3812000E7F0C12000E7F0612000E7FF7
:10055E000112000E7F8012000EE4FB745A2BF8E697
:0F056E00FF1206230BBB07F37FE87E0302058510
:10026000E5186401600302048FF518E520644D6011
:100270000302048DE52E6441600302048DE54764AA
:10028000456003020317E54A642E702CE54B24D029
:10029000FFE434FFFE7C007D0A1201EBAA06AB07E7
:1002A000E54924D0FFE434FFFE7D641201EBEF2B1F
:1002B000FFEE3AFEE54C8048E54B642E7059E54A66
:1002C00024D0FFE434FFFE7C007D641201EBAA061B
:1002D000AB07E54924D0FFE434FFFE7C037DE81240
:1002E00001EBEF2BFBEE3AFAE54C24D0FFE434FFB0
:1002F000FE7C007D0A1201EBEF2BFFEE3AFEE54D8E
:1003000024D0FDEC34FFCD2FCD3EFCE41201318F23
:10031000678E668D658C647FCD7ECC7DEC7C3FAB3B
:1003200067AA66A965A86412002612016A8E168F54
:10033000177F817E957D037C3FAB67AA66A965A880
:100340006412002612016A8E628F63E519B40115EA
:10035000E4F519FC7D641201FDEF251BF51BEE355C
:100360001AF51AD28C7F8012000E7F531206237F5B
:10037000501206237F451206237F451206237F4431
:100380001206237F3A120623AE16AF177C007D6457
:100390001201FDC3EF940AEE9400500F7F20120665
:1003A00023AE16AF177C007D648020AE16AF177C9D
:1003B000037DE812061AAE16AF177C037DE8120122
:1003C000FD7E007F64CFCDCFCECCCE12061A7F2E1D
:1003D000120623AE16AF177C007D6412060D7F4B0C
:1003E0001206237F6D1206237F2F1206237F6812C9
:1003F00006237FC012000E7F4A1206237F4F12068B
:10040000237F551206237F521206237F4E120623A6
:100410007F451206237F591206237F3A120623AE28
:100420001AAF1B7C277D1012061AAE1AAF1B7C2751
:100430007D101201FD7E037FE81206147F2E120646
:1004400023AE1AAF1B7C277D101201FD7E037FE8CF
:10045000CFCDCFCECCCE1201FD7F64120612AE1AE4
:10046000AF1B7C277D101201FD7E037FE8CFCDCF2F
:10047000CECCCE1201FD7E007F64CFCDCFCECCCED0
:1004800012060D7F4B1206237F6D120623D2AC227B
:1005A300E4F56C758921F587758DFD758BFD758C6B
:1005B3003C758AB0D2A9D28CC29FD29ED29CD2AFB4
:0505C300D28EC2AC2243
:1005EB001205A312054ED2AC12026020B5FA7F0A97
:1005FB007E0012058520B5F0E4F51AF51B20B5E851
:02060B0080FB72
:03000B0002062DBD
:10062D00C0E0C0D0758C3C758AB00508E508B414DF
:0E063D0008C28C750800751901D0D0D0E032CB
:0300230002051CB7
:10051C00C0E0C0D075D000C000C298741C256CF827
:10052C00A699056CE51CB4240FE56CB43E0D756CF6
:10053C0000751801C2AC8003756C00D000D0D0D00F
:02054C00E0329B
:10002600EC4D6011E8497017ED33EC3304600DE4D4
:10003600FCFFFEFD22E933E8330470F80201D61214
:1000460001A158046009E4CC248150062850090215
:1000560001E02840030201DDC0E0EB4A7044B980AC
:1000660006D0E0FB0201CCEF4E701CBD8008EBFF12
:10007600EAFEE9FD80EBE98DF0A4FEE5F002010F52
:10008600E9CDF9EAFEEBFFEF89F0A4FCE5F0CE89B5
:10009600F0A42EFFE435F0CD89F0A42DFEE435F072
:1000A6008067EF4E7005BD80D780C3EF8BF0A4ACA0
:1000B600F0EE8BF0A42CFCE435F0F8EF8AF0A42CDB
:1000C600E5F038FCE433CB8DF0A42CFCE5F03BF8EE
:1000D600EE8AF0A42CFCE5F038F8E433CF89F0A4DE
:1000E6002CFCE5F038CF3400CE89F0A42FFFE5F0E4
:1000F6003EFEE433C98DF0A42EFEE5F039CD8AF03C
:10010600A42FFFE5F03EFEE43DFD33D0E0FB5007B3
:100116000BBB000F0201E0EC2CFCEF33FFEE33FECD
:06012600ED33FD0201B8FB
:10012C0075F020800E75F010800575F0087D007E4E
:10013C00007F003392D530D503120252EC334010BD
:10014C00EF33FFEE33FEED33FDEC33FCD5F0ED2257
:0E015C00E5F0247EA2D513CC92E7CDCEFF2293
:10016A00EDD2E7CD33EC3392D524814006E4FFFE8D
:10017A00FDFC22FCE4CFCECDCC24E0501174FF80EC
:10018A00EDC3CC13CCCD13CDCE13CECF13CF047089
:07019A00F030D5DE02025235
:1001A100E9D2E7C933E833F892D5EDD2E7CD33ECA4
:0701B10033FC5002B2D5221D
:1001B800EC30E7100FBF000C0EBE00080DBD0004A8
:1001C8000BEB6014A2D5EB13FCED92E7FD2274FF54
:1001D800FCFDFEFF22E480F8A2D574FF13FC7D80AD
:0301E800E480EFC1
:0300000002049067
:0C049000787FE4F6D8FD75816C0204D77B
:1001EB00EF8DF0A4A8F0CF8CF0A428CE8DF0A42E28
:0201FB00FE22E2
:1001FD00BC000BBE0029EF8DF084FFADF022E4CCE6
:10020D00F875F008EF2FFFEE33FEEC33FCEE9DECAE
:10021D00984005FCEE9DFE0FD5F0E9E4CEFD22EDF4
:10022D00F8F5F0EE8420D21CFEADF075F008EF2F3E
:10023D00FFED33FD4007985006D5F0F222C398FD2F
:05024D000FD5F0EA22CC
:0E025200C3E49FFFE49EFEE49DFDE49CFC22BD
:10049C000205EBE493A3F8E493A34003F68001F286
:1004AC0008DFF48029E493A3F85407240CC8C33361
:1004BC00C4540F4420C8834004F456800146F6DF30
:1004CC00E4800B01020408102040809005C8E47EF3
:1004DC00019360BCA3FF543F30E509541FFEE49325
:1004EC00A360010ECF54C025E060A840B8E493A3EC
:1004FC00FAE493A3F8E493A3C8C582C8CAC583CA17
:10050C00F0A3C8C582C8CAC583CADFE9DEE780BECE
:0105EA000010
:00000001FF
